:100000000C94C4100C94EC100C94EC100C94EC10A8
:100010000C94EC100C94EC100C94EC100C94EC1070
:100020000C94EC100C94EC100C94BA160C94291748
:100030000C94EC100C94EC100C94EC100C94EC1050
:100040000C94EC100C94EC100C94EC100C94EC1040
:100050000C94EC100C94EC100C94EC100C945B19B8
:100060000C94EC100C94EC100C94EC100C94EC1020
:100070000C94EC100C94EC100C94EC100C94EC1010
:100080000C94EC100C94EC100C94EC100C94EC1000
:100090000C94EC100C94EC100C94EC100C94EC10F0
:1000A0000C94EC100C94EC100C94EC10000000007C
:1000B000003E5B4F5B3E3E6B4F6B3E1C3E7C3E1CEE
:1000C000183C7E3C181C577D571C1C5E7F5E1C0034
:1000D000183C1800FFE7C3E7FF0018241800FFE7EB
:1000E000DBE7FF30483A060E2629792926407F05AE
:1000F0000507407F05253F5A3CE73C5A7F3E1C1CC4
:1001000008081C1C3E7F14227F22145F5F005F5F83
:1001100006097F017F006689956A6060606060946F
:10012000A2FFA29408047E040810207E2010080874
:100130002A1C08081C2A08081E101010100C1E0C7F
:100140001E0C30383E3830060E3E0E060000000011
:100150000000005F00000007000700147F147F14F8
:10016000242A7F2A1223130864623649562050003D
:1001700008070300001C2241000041221C002A1C29
:100180007F1C2A08083E0808008070300008080814
:100190000808000060600020100804023E51494534
:1001A0003E00427F400072494949462141494D3352
:1001B0001814127F1027454545393C4A49493141B9
:1001C000211109073649494936464949291E000087
:1001D00014000000403400000008142241141414DC
:1001E0001414004122140802015909063E415D59C8
:1001F0004E7C1211127C7F494949363E41414122D1
:100200007F4141413E7F494949417F090909013EFA
:10021000414151737F0808087F00417F4100204021
:10022000413F017F081422417F404040407F021C33
:10023000027F7F0408107F3E4141413E7F0909094A
:10024000063E4151215E7F09192946264949493216
:1002500003017F01033F4040403F1F2040201F3FDC
:100260004038403F63140814630304780403615961
:10027000494D43007F4141410204081020004141A3
:10028000417F04020102044040404040000307084F
:100290000020545478407F2844443838444444284B
:1002A000384444287F385454541800087E090218F2
:1002B000A4A49C787F0804047800447D400020407A
:1002C000403D007F1028440000417F40007C0478BE
:1002D00004787C080404783844444438FC18242406
:1002E0001818242418FC7C08040408485454542486
:1002F00004043F44243C4040207C1C2040201C3C03
:100300004030403C44281028444C9090907C4464F9
:10031000544C44000836410000007700000041368C
:10032000080002010204023C2623263C1EA1A16112
:10033000123A4040207A3854545559215555794144
:100340002154547841215554784020545579400C1B
:100350001E527212395555555939545454593955FC
:100360005454580000457C410002457D420001453F
:100370007C40F0292429F0F0282528F07C545545AC
:10038000002054547C547C0A097F4932494949323F
:100390003248484832324A4848303A4141217A3A54
:1003A00042402078009DA0A07D39444444393D401E
:1003B00040403D3C24FF2424487E4943662B2FFCCB
:1003C0002F2BFF0929F620C0887E09032054547979
:1003D000410000447D413048484A32384040227A4A
:1003E000007A0A0A727D0D19317D2629292F2826C7
:1003F0002929292630484D402038080808080808CF
:100400000808382F10C8ACBA2F102834FA00007B27
:10041000000008142A142222142A1408950022002D
:1004200095AA005500AAAA55AA55AA000000FF00E7
:10043000101010FF00141414FF001010FF00FF1024
:1004400010F010F0141414FC001414F700FF000056
:10045000FF00FF1414F404FC141417101F10101FD5
:10046000101F1414141F00101010F0000000001FC3
:10047000101010101F10101010F010000000FF10CE
:100480001010101010101010FF10000000FF1400CA
:1004900000FF00FF00001F10170000FC04F41414FC
:1004A0001710171414F404F40000FF00F7141414C8
:1004B00014141414F700F7141414171410101F1048
:1004C0001F141414F4141010F010F000001F101F6B
:1004D0000000001F14000000FC140000F010F010D9
:1004E00010FF10FF141414FF141010101F00000050
:1004F00000F010FFFFFFFFFFF0F0F0F0F0FFFFFF54
:100500000000000000FFFF0F0F0F0F0F38444438AA
:10051000447C2A2A3E147E02020606027E027E02E5
:1005200063554941633844443C04407E201E200604
:10053000027E020299A5E7A5991C2A492A1C4C7241
:1005400001724C304A4D4D303048784830BC625AC8
:10055000463D3E494949007E0101017E2A2A2A2A58
:100560002A44445F444440514A444040444A514034
:100570000000FF0103E080FF000008086B6B0836F5
:1005800012362436060F090F060000181800000066
:100590001010003040FF0101001F01011E00191D55
:1005A0001712003C3C3C3C0000000000F0F89C8E20
:1005B0008783878E9CF8F00000FEFF03030303038C
:1005C000070EFCF80000FEFF0303030303070EFC05
:1005D000F80000FFFF00000000000000FFFF000027
:1005E000FEFF8383838383C7EE7C380000F8FC0E14
:1005F00007030303070EFCF800003F7FE0C0808084
:10060000C0E07F3FFFFF01010101010101FFFF0089
:1006100000FFFF0C0C0C0C1C3E77E3C100007FFFB9
:10062000C0C0C0C0C0E0703F1F00001F3F70E0C0EE
:10063000C0C0E0703F1F00007FFFC1C1C1C1C1E366
:10064000773E1C00001F3F70E0C0C0C0E0703F1F3D
:10065000000000000001FFFF01000000D5F08D1434
:10066000A1C881CFD9F1AF20000000000000000038
:1006700000000000000000000000C0F0FEFFFFFFCF
:10068000FFFFFFFFFFFFFFFFFFFFFFFFFFFFFFFF7A
:10069000FFFFFEF0800000000000000000000000EE
:1006A0000000000000C7FFFFFFFFFFFFFFFFFFFF8D
:1006B000FFFFFFFFFFFFFFFFFFFFFFFFFFFFFF0F3A
:1006C0000300000000000000000000000000000027
:1006D000FCFFFFFFFFFFFFFFFFFFFF7F3F0FFFFF5D
:1006E000FFFFFFFFFFFFFFFFFF7F03000000000091
:1006F0000000000000000000000080FFFFFFFFFF7F
:10070000FFFFFF7F1F0701000000C1FFFFFFFFFF8A
:10071000FFFFFFFF1F0000000000000000000000BE
:1007200000C0F0F8FCFCFFFFFFFF7F3F1F0F03003E
:100730000000000000001FFFFFFFFFFFFFFFFF079B
:1007400000000000000000000000E0FCFFFFFFFFD1
:10075000FF3F1F0703000000000000000000000032
:10076000000000FFFFFFFFFFFFFFFFF80000000099
:100770000000F0F8FCFFFFFF3F1F07010000000032
:100780000000000000000000000000000000000366
:10079000FFFFFFFFFFFF3F0300000000007EFFFFA1
:1007A000FFFFFF7F000000000000000000000000CD
:1007B000000000000000000000000000FFFFFFFF3D
:1007C000FF07000000000000000000010101000020
:1007D0000000000000000000000000000000000019
:1007E000000080E0F0F8FCFFFFFFFF7F1F0000002B
:1007F00000000000000000000000000000000000F9
:1008000000000000000000000000000000000103E4
:1008100003030303010100000000000000000000CA
:10082000002C4A0000000000000000000000000052
:100830000000000000C0F07E8FF17E87F8FF3FC10E
:10084000FEFFFE817FFFFEF10FFCC33EF080000043
:100850000000000000000000000000000000000098
:10086000C3FBF3F4F7F7E0EFEFEFC0DF1FDFDFDFED
:10087000C0EFEFF7F7F0FBFA0901000000000000FD
:100880000000000000000000000000FCFFFFFFFF70
:10089000FFFFFFFF7F3F0F0100FFFFFFFFFFFFFF95
:1008A000FFFF7F03000000000000000000000000C8
:1008B000000000000080FFFFFFFFFFFF7F1F070118
:1008C0000000000000C1FFFFFFFFFFFFFF1F00004F
:1008D000000000000000000000000000C0F0E0D8B0
:1008E000BC7F7F7F3F1F0F0300000000000000005F
:1008F000001FFFFFFFFFFFFF0700000000000000D8
:100900000000000000E0FCFFFFFF3F1F07030000A6
:100910000000000000000000000000000000EFDF09
:10092000DFDFDFDFE800000000000000F008040067
:100930000FDF1F07010000000000000000000000A2
:100940000000000000000000000003FFFFFFFF3F69
:10095000030000000000007E81000000807F000096
:100960000000000000000000000000000000000087
:1009700000000000000000FFFFFF07000000000073
:100980000000000000010101000000000000000064
:10099000000000000000000000000000806010085F
:1009A0000403000081611E00000000000000000040
:1009B0000000000000000000000000000000000037
:1009C000000000000000000001020202020201011A
:1009D0000000000000000000000000000000000017
:1009E000000000000000000000C0F0F8FCFEFEFF68
:1009F000FFFFFFFFFFFEFEFCFCF8F0E080000000C0
:100A000000000000000000000000000000000000E6
:100A100000000000000000000000000000000000D6
:100A2000000000000000000000000000C0E0F0F046
:100A3000F0F8FEFFFFFFFFFFFFFFFFFFFFFFFFFFDD
:100A4000FFFFFFFFFFFFFFFC0000000000000000B1
:100A50000000000000000000000000000000000096
:100A60000000000000000000000000000000000086
:100A7000000080E0F8FEFFFF7F1F1F0F0F0F0F1F0A
:100A80003F7FFF7F7FFFFFFFFFFFFFFFFFE7FFDFEE
:100A9000CFC3E0E0E0E0C0C0800000000000000044
:100AA0000000000000000000000000000000000046
:100AB000000000000000000000E0F8FEFFFFFFFF64
:100AC000E7E1E0E0E0F0F0F0F8F8FCFCFCFCFCFC16
:100AD000FFFFFFFFFFFFFFFFFFFFFFFFFFFFFFFF26
:100AE000FFFFFFFFFEF8F0E0C08000000000000004
:100AF00000000000000000000000000000000000F6
:100B000000000001030707070F0F0F0F0F0F0F0F54
:100B10000F1F3F3F7F7F7F3F1F0F1F3F7FFFFFFF65
:100B2000FFFFFFFFFFFFFFFFFFFFFFFFFB87070F39
:100B30001F1F3F3F7F7FFEFCFCF8F8F0E0C0800005
:100B400000000000000000000000000000000000A5
:100B50000000000000000000000000000000000095
:100B60000000000000000001C7FFFFFFFFFFFFFFC4
:100B7000FFFFFFFFFFFFFFFFFCF0C00000000000D1
:100B80000001030307070F0F1F3F3F7EFCF8F0F83B
:100B9000F8F8FCFCFE4F060000000000000000001A
:100BA0000000000000000000000000000000000045
:100BB0000001010101010101010101010101010126
:100BC000010101010101000000000000000000001F
:100BD0000000000000000000000101010100000011
:100BE000004A31000000000000000000000000008A
:100BF0000000C0F0F83CCCF67E3E1EFEF6CC3C7801
:100C0000F8F0E0800000000000000000000000009C
:100C100000000000000000000000000000000000D4
:100C200000000000000000000000000000000000C4
:100C30000000000000C0A0C0E0B0D86691EB817E4B
:100C400007F0DE5F1EC1E7F9AE8FECC33FFFFC008B
:100C50000000000000000000000000000000000094
:100C60000000000000000000000000000000000084
:100C7000000000000000000000000080E0F8FE7F9F
:100C80001F0F0F07050405031F3E7803376F0F1D65
:100C90005959D9EFE701C08F830040C0C0C08080A0
:100CA0000000000000000000000000000000000044
:100CB0000000000000000000000000000000000034
:100CC0000000E0F8FE7F9FC7C1C0C0C000E000E0A8
:100CD000F0F0F8F8F8F838C038050B1BF63636197E
:100CE0001D1D1D2EC702050B37CF3FDE60B0C0C0F3
:100CF0008000000000000000000000000000000074
:100D000000000000000000000000000001030303D9
:100D10000707070707070007000F1F1F3F3F3F1F79
:100D2000080718204080030C106080000000001F9E
:100D3000E0000007788203070F0F1F1F3E3E7CF87C
:100D4000F8F0F0E0C08000000000000000000000AB
:100D50000000000000000000000000000000000093
:100D60000000000000000000000000000000000182
:100D700006B8A828535C5050707050AFA814D48B9C
:100D80006CC0000000000000000001010303070721
:100D90000F1E1E3C787060F0F0F0D8584C06000032
:100DA0000000000000000000000000000000000043
:100DB000000000000000000000000101000101002F
:100DC000010100010001010100010001010000001A
:100DD0000000000000000000000000000000000013
:100DE00000000000000000000000FCFFFFFFFFFF0C
:100DF000FFFFFFFFFFFFFFFFFFFFFFFFFFFFFFFF03
:100E0000FFFFFFFFFFFFF000001F1F3FFFFFFFFF7F
:100E1000FFFFFFFFFFFFFFFFFFFFFFFFFFFFFFFFE2
:100E2000FFFFFFFF7F3F3F3E00000000073FFFFF47
:100E3000FFFFFFFFFFFFFFFFFFFFFFFFFFFFFFFFC2
:100E4000FFFF3F070000000000000000000000035B
:100E50003FFFFFFFFFFFFFFFFFFFFFFFFFFFFFFF62
:100E60000F01000000000000000000000000000072
:100E7000FCFFFFFFFFFFFFFFFFFFFFFFFFFFFFFF85
:100E80000000000000000000000000000000000062
:100E90000FFFFFFFFFFFFFFFFFFFFFFFFFFF1F0031
:100EA0000000000000000000000000000000000042
:100EB00000000FFFFFFFFFFFFFFFFFFF1F0100000C
:100EC0000000000000000000000000000000000022
:100ED0000000FCFFFFFFFFFFFFFFFFFFFC800000A3
:100EE000000000000000000000000000000000F80A
:100EF000FCFFFFFFFFFF3F0F0F3F7FFFFFFF7E3C29
:100F000000000000000000000000000000000000E1
:100F100001030303010000000000000000000000C6
:100F2000000000000000000000204A0000FCFF0359
:100F3000FCFF03FCFFFFFF7F80FFFFFFFF807FFFC1
:100F4000FF807FFFE01FFFF0000000000F1F00BFC9
:100F5000BF007F7F7F7F7F00FFFFFFFFFFFF007FDE
:100F60007F7F708FBF3C031F1E0000000000000742
:100F7000BF7F7FFFFFFFFFFEFEFE00FEFEFEFEFFC7
:100F8000FFFF7FBF0700000000000000000000001E
:100F900000033CC0000001010101FE01010101D07C
:100FA00000F00E0100000000000000000000000042
:100FB0000000FC03F01C000000FE0F000000000316
:100FC00000FF000000000000000000000000000022
:100FD00000000FF00100000000FF0000000000E032
:100FE0001F000000000000000000000000000000E2
:100FF000000000000FF0000000FF000000E01E01F4
:1010000000000000000000000000000000000000E0
:1010100000000000FC274890909FF84844277C80FF
:1010200000000000000000000000000000000000C0
:1010300000F80403000000C0300F0F3040808081B2
:10104000423C000000000000000000000000000022
:101050000000010202020100000000000000000088
:1010600000000000000000000000001F7FFFFFFFE5
:10107000FFFFFF7F1F0A081D7EFEDD9F9FDFFB7DB8
:101080001B000000000000000080E0F0F8FCFEFE05
:10109000FFFFFFFFFFFFFEFEFCF8F0E08000000016
:1010A00000000000000000F0FEFFFFFFFFFFFFFF59
:1010B000FFFFFFFFFFFFFFFFFFFFFFFF7F000000BD
:1010C000000000000000000FFFFFFFFFFFFFFFFF19
:1010D000FFFFFFFFFFFFFFFFFFFF7F0F000000008C
:1010E0000000E0F8FCFEFFFFFFFFFFFFFFFFFFFF38
:1010F000FFFFFFFFFFFFFFFFFFFFFEFCF8F0C00058
:1011000000001FFFFFFFFFFFFFFFFFFFFFFFFFFFCD
:10111000FFFFFFFFFFFFFFFFFFFFFFFFFFFFCF000E
:10112000000000FFFFFFFFFFFFFFFFFFFFFFFFFFCC
:10113000FFFFFFFFFFFFFFFF7FFFFFFFFFFFFFE05E
:10114000000000000103C3F7FFFFFFFFFFFFFFFFE9
:10115000FFFFFFFFFFFFFFFFFCF183070703010015
:1011600000000080F0FEFFFFFFFFFFFFFFFFFFFF1B
:10117000FFFFFFFFFFFFFFFFFFFFFFFCE00000009E
:101180000020400000000000000000806010080403
:101190008282C1C1C1C1C181820204081060800085
:1011A000000000000000000000F00E0170E00201ED
:1011B000D9591990F0F0F02121A3060C00807F008E
:1011C0000000000000000000000F700000000000A0
:1011D00043EFDFDBB7371B1F0E030080700F0000EB
:1011E0000000000000E0F8FCFEFE7F9F621C60FB38
:1011F000F7EEEDE10EE7CBBA70ECDE3EFCF8F0C0A6
:1012000000000000001B17E71906010000708CC3E6
:10121000E1F1F97C3F1F07010E7FF9E2850B132DE9
:10122000C00000000000FEE9F6F8FCFE7E3F1FE76C
:10123000231110101020E02040F8077FFFFFFCF082
:10124000EF0000000000000101C5EE14A8A82E5117
:10125000505070707050512EA817EC80010303019C
:1012600000000000000080F03EC3FC3FC7F9FEFF15
:101270001FE0FFFFE01FFFF807FEF907FCE000009A
:10128000000000FFFFFFFFFFFFFFFFFF7F0A087B5B
:10129000FDFDD89E9F9DDE7E1C000000000000002A
:1012A000C0E0F0F8F8FCFCFCFCFCFCF8F8F0F0E026
:1012B000C0800000000000000080C0C0C0E0F8FF57
:1012C000FFFFFFFFFFFFFFFFFFFFFFFFFFFFFFFF2E
:1012D000FFFFFEF00000000000FFFF7F7F3F3F3F69
:1012E0003F7FFFFFFFFFFFFFFFFFFFFFFFFFFF9FAE
:1012F000FF7F3F0F808080800087818080C0C0C0DA
:10130000E0E0F0F1F3F1F1F3FFFFFFFFFFFFFFFF7C
:10131000FFFFFFFFFFFFFFFFFF3F3F3F3F3F3F7FDD
:10132000FFFFFFFFFFFF7F3F7FFFFFFFFFFFFFFF8D
:10133000FFFFFFFFFFFFFFFFFF00000000000000B6
:101340000000010101000000000001071FFFFFFF76
:10135000FFFFFFFFFFFFFFFFFF0000000000000096
:1013600000000000000000000080F0FCFFFFFFFF15
:10137000FFFFFFFFFFFFFFFFFF0000000000000076
:101380000000000000000038FEFFFFFFFFFFFFFF2E
:10139000FFFFFFFFFFFFFFFFFF20400000000000F6
:1013A000000000C0E0F030D8F8F878F8D830F0E06D
:1013B000E0C080000000000000000000800080C04D
:1013C000609847AF07F81FC3797C78079FE7B83D5F
:1013D000B30FFFFEF0000000000000FF7E3F3F1E45
:1013E0001711160F7EF9E00FDFBD3C77676766BE09
:1013F0009F07003F0F000000000000010000008078
:101400000080C0C0E0E0E1E0E001E0142D6DDBDB36
:10141000DB64777676B81D0B172FDE1F1F1F001FAA
:10142000003F7F7FFFFFFF7F201F608000000F30A5
:10143000408000000000037C8000000000000000ED
:10144000000000000000000000000000010618E09D
:10145000A0A14E704040C0C043BCA00000000000EE
:1014600000000000000000000000000080F07C8E02
:10147000F23CC5F9FD0DF1FDF10EFE00000000008B
:101480000000000000000000000018DE9FA3BCBFA9
:10149000037C7F7F01FEFFFFFFFC031F1F1F1F1F39
:1014A0001F1F1F1F1F1F1F1F1F1F1F1F1F1F13086F
:1014B0001F1316131F11111D1715171D11111B1FB7
:1014C000151F1B00000000000080F8FEFFFFFFFE5C
:1014D000FEFFFFFFFE1C00000000000000000000F7
:1014E0000000000080E0F8FEFFFFFF3F07E0FFFF85
:1014F000FFFFFF00000000000000808000000000EF
:1015000000F0FEFFFFFFFF7F0F0000003FFFFFFF27
:10151000FFFFFEF0F8FCFEFEFFFFFFFFFEFE7E3E3B
:101520000103070707000000000000000001030797
:101530000707070303010100000000010000001F6E
:101540001B0000000000000080F8FEFE221CFCFED4
:10155000F2F618000000000000000000000000008B
:1015600000000080E0F8FEFF3F070000E0FFFFFF03
:10157000000000000000000080800000000000006B
:10158000F0FEFFFF7F0F00000000003FFFFFFFFEA7
:1015900080E0F0F8FCFA766D1B370E1E06000001A5
:1015A0000303030000000000000000000103030328
:1015B0000301010000000000000000000000000026
:1015C00000000000000000F0FCFEFFFFFEFC70C009
:1015D000C0C0C0C0E0E0C0F0FCFFFFFF1F0701007B
:1015E0000000071F3F7FFFFFFF7F3F1F030000003A
:1015F00000000012180000000000000000000000C1
:10160000F0E49ABCFC700000C0C0C0C0E00000C0A4
:10161000F0FCFF1F07010000000000071F3F797E5C
:101620007F3F1F03000000000000003C7EFFFFFF23
:10163000FEFCE0000000000000000000000000FFD1
:10164000FFFFFFFFFCC000000000000000000000E2
:10165000003FFFFFFFFFFFFEFEFEFE3F0700000012
:10166000000000000103070707030100000000114C
:101670001B000C66FEFEFCE0000000000000000005
:10168000000000000000FFFFFFFCC00000000000A1
:1016900000000000000000003FFFFFFFFEF08EFE94
:1016A0003E070000000000000000000103030301EA
:1016B00000000000000A0A7CF1333F7CFAE3E3E714
:1016C0003F000001010101010100007FFFFFFFFF5A
:1016D000FFFFFFFF3F000001010101010100000ABF
:1016E0000A78FD797FBCF6FBFBF73F0000010101A2
:1016F00001010100003F3F3F3F3F3F3F3F3F3F0071
:101700000000000000000000000A0A78FB7B7FFC5C
:10171000F6F7F7FF3F0000010101010101000000A1
:1017200080C0E0F0F8FCFEFEFFFFFFFFFFFEFEFCC6
:10173000FCF8F0E0C08000F8FFFFFFFFFFFFFFFFB5
:10174000FFFFFFFFFFFFFFFFFFFFFFFFFFFFFE01A8
:101750001F7FFFFFFFFFFFFFFFFFFFFFFFFFFFFFF9
:10176000FFFFFFFF7F1F01000000000001070707C8
:101770000707070707070707030301000000001812
:101780001B000080C0E030D8ECFC7E3EF6CE3EFC74
:10179000EC9878F0E0C080000000F8FF07788F2315
:1017A000B9FC825C6779FCF8031FFEF10FFFFFFEB6
:1017B0000000011F7E00CE9E2F2F3FBDBCBF9FC7E4
:1017C00000783FCFF07F1F01000000000000000103
:1017D00004060007070303050400000100000000E1
:1017E00000C0F0F0F0F0F0F0F0F8FCFEFF070F1F83
:1017F0001F1F1F0F0F070301000C0D00C0F0F0F0BA
:10180000F030C0F0F8FC7E00070F0F0F0D06070345
:1018100001000060F0F8FCFEFEFCF8300000000063
:101820000000FFFFFFFFFF030000C0E0F0FCFE0030
:101830007FFFFFFFFFFFFEFFFF7F1F0F070000017D
:1018400003070707030100000000000E1B0060F003
:10185000B8DCC4E8300000000000000000FFFFFF1B
:101860000300000000C0E0F0FC00007FFFFFFFF07D
:101870008CFE7F1F0F07030000000103030301001C
:10188000000000000000000000000080C0F8FCFE26
:10189000FFFF7F3F1E0C0080E0F0FCFEFFFF7F0F8C
:1018A000030000000000007CFFFFFFFFFFFFC300FC
:1018B000000000000000000000077FFFFFFFFFFFA7
:1018C000FEF000000000000000000000011F1F07E4
:1018D00003010000000000000000112500000000CE
:1018E00000000080C0F8EC6E5E2C100C0000008040
:1018F000E0F0FCFE7F0F0300000000000000007C11
:10190000FFFFFFF7C3000000000000000000000020
:1019100000077FFF7FBFDEE0C00000000000000086
:1019200000000000011E070301000000000000008D
:1019300000063EFEFEFEFFFFF80000000103070761
:101940000F080C00063EFEFEFFF8E000000000015C
:10195000030307C6EFFFFEFCF8E0C0000000000034
:1019600000000000000000000000000001070F1F41
:101970003F7F7FFFFCF8F8F0E0E0C0C08000C0C00F
:10198000C0C0C0E0E000000000000000000103074C
:101990000F0F1F3F7FFFFFFFFFFFFFFFFF3F000015
:1019A0000000000000000000000000000000000037
:1019B00001030303010000191A00C60E3CF8E0C041
:1019C0000000000000000000000000000000000017
:1019D00000000001070C1F3F3F7CF8F0F0E0C0C0A2
:1019E0008080000000C0C0C0C0E000000000000017
:1019F00000000000010307070F1F3F7F7EFCFDFB77
:101A0000F7FF3F00000000000000000000000000A1
:101A100000000000000000010101000000000000C3
:101A200000000080C0C0E0F8FCFEFEFFFF7F3E0C1F
:101A300070787C7E7F7F7F5F0F07030301000000CB
:101A4000000000130F000000000000008080C0E0D4
:101A5000F8FC7C5E5E2E0C000070783C3E5E5F0FF2
:101A6000070301010000000000000080C0C0C0E0CA
:101A7000E0F0F0F0F8F8F8FCFCFCFE7E7F7F3F140D
:101A80000800808080C0C0E0E0E0F0F0F078787876
:101A90007C3C3E3E1E0EFFFFFFFFFFFF00FEFF7F70
:101AA0007F3F3F1F000810000EFEFEFEFFC0007CBF
:101AB0007C3D3F1F1F0F00C0E0F0F8FCFEFEFFFF63
:101AC000FFFFFFFEFEFCFCF8F0E0C0000303030391
:101AD00003030303030303030303030303030303D6
:101AE00003150AC0201088C4C2C2C1C1C1C181028D
:101AF000020404081020C0000300010101000000DE
:101B000000000101030000000000000003080AEFCC
:101B1000EB273E7ECED65C0001020202030100FFED
:101B2000FFFFFFFFFFFF7F00010303030301000826
:101B30000AF7F7EFFE7EEEEE5C00010202030301FE
:101B4000007F7F7F7F7F7F7F7F000000000000009D
:101B500000080A7777777E7E6E6E6C0000000000CA
:101B6000000000FFFFFFFFFFFFFFFFFFFFFFFF077A
:101B700007070707070707070707070C0BF3E3FB30
:101B8000FFFEE6C6F67C0070380001020203030384
:101B9000010406000080E0F0F8FCFCFEFEFFFFFF01
:101BA000FFFFFFFFFFFFFFFFFFFFFFFFFF030F1F11
:101BB0003F7F7FFFFFFFFFFFFFFFFFFFFFFFFFFFF5
:101BC000FFFF7F7F3F0000000000000000010101D7
:101BD00001010101010101010000000000181100D4
:101BE000806010C828140C0A060606C525140B0BC5
:101BF000080A0A1B0D017800030C1027386040808A
:101C00008080808798A0C0808080404000300C0099
:101C100000000000000000000000010001000000C2
:101C200001000000000000C0E0F0F8FCFCFEFEFE39
:101C3000FEFFFFFEFEFEFEFEFEFEFEFEFEFEFE03BD
:101C4000070F1F3F3F7F7F7F7F7F7F7F7F7F7F7F6C
:101C50007F7F3F1F0F0707180F00C02010C82814F0
:101C6000140C0C0A06C4320E06060602020200001C
:101C70008E0003040817182020202020404F5060B9
:101C800040402020100800060100C0E0F0F8FCFEF3
:101C9000FFFFFFFFFFFFFFFFFFFFFFFFFFFFFF074C
:101CA0001F3F7FFFFFFFFFFFFFFFFFFFFFFFFFFF64
:101CB000FF7F3F1F0316100000C0201008C4320A27
:101CC00005020103E31F030301010000C700071819
:101CD0002040405F6040C0808080BFC08040402086
:101CE000180300C0E0F0F8FCFEFEFFFFFFFFFFFF5F
:101CF000FFFFFFFFFFFFFFFFFFFF03070F1F3F3F38
:101D00007F7F7F7F7F7F7F7F7F7F7F7F7F3F1F0FF3
:101D100003170F00C0201008C424120A0A0502018C
:101D200083730F030301010000C7000304081017A9
:101D3000382020202040405F6040402020100803D1
:101D40000000F8FFFFFFFFFFFFFFFFFFFFFFFFFFA8
:101D5000FF8100000C0F0F0F0F0F0F0F0F0F0F0F52
:101D60000F0F0F0F0F0E08130C0000F8A770CFC055
:101D700040404F70A0A0507E81000000000C06087B
:101D80000D0D010D0D09050E0E0C030F0E080000C0
:101D9000C0E0F0F8FCFEFEFEFEFFFFFFFFFFFFFFCE
:101DA000FFFFFEFEFEFEFCF8F0801F1F3FFFFFFF5F
:101DB000FFFFFFFFFFFFFFFFFFFFFFFFFFFFFFFF33
:101DC000FFFFFFFF1F00000000071F1F1F1F1F1F37
:101DD0001F1F1F1F1F1F1F1F1F01010101010000E7
:101DE0001B150000C0E0F038DC2CD460EEEFD0DB37
:101DF0006B6D3506E2F8FCFCFCF8F08000000F1F6C
:101E000003FC0378860100000003FC00000000F1E1
:101E10000FBFBFBFDF5F1F000000000000071803F7
:101E20001C0000001F00000000001F000000000058
:101E3000000000070F1F3F7FFFFFFDF8F0E0C080AC
:101E4000000000000000000000000103070F0F0F5A
:101E50000F0F0E0C08110C00070F1B3B7DFDF8F057
:101E6000E0C0800000000000000000000000000151
:101E700003070F0F0F0E0C08000000000080C0E0E9
:101E8000F0FCFF7C7E3E3F1F1F0F0F07030A0F0071
:101E90000000000080C0E0F0FC383C1C1E0F0F0763
:101EA000070301E0F8FEFFFCFC786020010101015E
:101EB0000000000000090900E0F8FC78782000002C
:101EC000000000000000000000206078FCFCFFFE25
:101ED000F8E00000000000010101010909000020F4
:101EE0007878FCF8E0000000000000000000000B23
:101EF0000D000000B02038382480400000000200AF
:101F00000F04040704000080F0FEFFFFFFFFFFFE48
:101F1000E04003070F0F1F0F0F0F0F04000B0D8082
:101F2000F0FEFFFFFFFFFFFEE04003070F0F1F0F54
:101F30000F0F0F04000B0D000000B0203838248074
:101F40001000000002000B0C040F00000080F0FEE7
:101F5000FFFFFFFFFFFEF81003070F0F1F1F0F1FEC
:101F60000F00000B0D80F0FEFFFFFFFFFFFEF810DB
:101F700003070F0F1F1F0F1F0F00000B0D000000A6
:101F8000B02038382480000000000100070C040352
:101F900000020080F0FEFFFFFFFFFFFE800003074E
:101FA00007070F1F1F0F0307020B0D80F0FEFFFF37
:101FB000FFFFFFFE8000030707070F1F1F0F030728
:101FC000020B0D000000B020383824800000000013
:101FD00002000F04040F00010080F0FEFFFFFFFF6E
:101FE000FFFE800003070F0F1F0F0F1F0F03010BD2
:101FF0000D80F0FEFFFFFFFFFFFE800003070F0FC5
:102000001F0F0F1F0F03010A0D004CB62E32362E84
:102010008040000000000F0404070400007CFEFF65
:10202000FFFFFFFFFEE04000000F1F0F0F0F0F0428
:10203000000A0D7CFEFFFFFFFFFFFEE04000000FE7
:102040001F0F0F0F0F04000A0D000CB62E32362E94
:102050008010000002000B0C040F0000003CFEFF8B
:10206000FFFFFFFFFEF81002070F1F1F0F1F0F00DB
:10207000000A0D3CFEFFFFFFFFFFFEF81002070FF6
:102080001F1F0F1F0F00000A0D000CB62E32362E38
:10209000800000000100070C04030002003CFEFF6A
:1020A000FFFFFFFFFE80000103070F1F1F0F030745
:1020B000020A0D3CFEFFFFFFFFFFFE800001030749
:1020C0000F1F1F0F0307020A0D000CB62E32362E0B
:1020D0008000000002000F04040F0001003CFEFF1E
:1020E000FFFFFFFFFE800002070F1F0F0F1F0F03F0
:1020F000010A0D3CFEFFFFFFFFFFFE800002070FFD
:102100001F0F0F1F0F03010E1F3F7E3F1F0E000802
:102110000800000C180C000000080B00020202006E
:10212000000904000001020200000524001001055E
:10213000240101010424020605240600010705818B
:102140000310004009040100020A00000007050214
:102150000240000007058302400000040309041246
:10216000010002EF02014041233680000101020319
:102170000141726475696E6F204C4C43004172647A
:1021800075626F790000D81911241FBECFEFDAE015
:10219000DEBFCDBF12E0A0E0B1E0E0E0F8E602C0B3
:1021A00005900D92A031B107D9F727E0A0E1B2E088
:1021B00001C01D92A030B207E1F710E1C4ECD0E1FC
:1021C00004C02197FE010E94F833C33CD107C9F730
:1021D0000E94F5190C94FE330C9400004F925F920C
:1021E0007F928F929F92AF92BF92CF92DF92EF92A7
:1021F000FF920F931F93CF93DF93DC01FA01F490CA
:102200003196E491CF2DD0E08E01080F191F1016E2
:1022100011060CF0ACC0803891050CF0A8C0CB01C1
:102220008E0F911D181619060CF0A1C060347105AF
:102230000CF09DC0F62FF7707F2ECB0177FD07962F
:10224000F3E095958795FA95E1F7F82F77FF04C0AD
:10225000772011F0FFEFF80F662777276A1B7B0BBB
:10226000B7FD02C070E060E080E8882E8A1A00386E
:1022700011050CF48F2C861A0F2F0F2E000C110B4A
:10228000E02EE094FF3F0CF0E12C91E08E2F877060
:1022900009F490E0E695E695E6959E0F090F111D6D
:1022A0000930110514F098E09F1B9E2C9F0E092DFC
:1022B00010E8010360011124AC0DBD1DA60FB71F6E
:1022C000FE9C600D711D11244E5F5F4F460F571F1E
:1022D000072D072C000C110B260F371F9F0F991588
:1022E00009F445C0BD0164557D4F7B01D12CC12C43
:1022F000C814A8F5F901EC0DFD1D649170E0002EE5
:1023000002C0660F771F0A94E2F760957095FA0194
:10231000EC0DFD1DE491F0E02F01002E02C0440CF5
:10232000551C0A94E2F797FC05C0F70180818623CB
:1023300084298083772061F0F6E0F9154CF057018D
:1023400080E8A80EB11CF501808187238529808350
:10235000FFEFCF1ADF0A6FEFE61AF60AC9CF9394A0
:102360004C0F5D1F2C0F3D1FA058BF4FB8CFDF9102
:10237000CF911F910F91FF90EF90DF90CF90BF9082
:10238000AF909F908F907F905F904F900895ECEA70
:10239000F2E0A0E0B8E000800EBC8111012C1197A2
:1023A000A0FDFDCF0192B9F70DB40895FC01809115
:1023B000AB02882311F13FB7F89482E08093E900E3
:1023C0002091F200822F90E01816190614F481E093
:1023D00090E0882339F0289844E64093AA0240917F
:1023E000F1004083222339F02091F200211103C033
:1023F0002BE62093E8003FBF08958FEF9FEF0895ED
:102400002FB7F89483E08093E9009091E800892F3A
:10241000807295FF04C09091F20080E4891B2FBF69
:1024200008958091A20281110DC082E080939E02E6
:1024300084E080939F021092A1021092A00281E09A
:102440008093A2028EE992E00895CF93DF931F92CA
:10245000CDB7DEB76983DC01ED91FC910280F38199
:10246000E02D41E050E0BE016F5F7F4F09950F9076
:10247000DF91CF91089583E08093E9008091F2008D
:10248000882319F08AE38093E80008950E940012DF
:1024900090E00895CF93DF931F92CDB7DEB7FC0194
:1024A0008485958597FD08C02FEF3FEF35872487FA
:1024B0000F90DF91CF910895CE0101960E94D61121
:1024C000019719F4898190E0F3CF8FEF9FEFF0CF60
:1024D0000F931F93CF93DF931F92CDB7DEB78C017D
:1024E000FC018485958597FF0BC0CE0101960E9463
:1024F000D611019771F4898190E0F801958784875E
:10250000F801848595850F90DF91CF911F910F91F0
:1025100008958FEF9FEFF1CFFC018485958597FD9E
:102520000BC09FB7F89482E08093E9008091F2009D
:102530009FBF90E0019608959FB7F89482E0809342
:10254000E9008091F2009FBF90E0089540919802C9
:1025500050919902209196023091970242175307A9
:10256000B4F49091E8009570E1F39091E80092FD49
:1025700019C08093F1008091980290919902019680
:102580008F739927892B19F48EEF8093E80080913F
:1025900098029091990201969093990280939802E3
:1025A00081E0089580E00895DF92EF92FF920F930B
:1025B0001F93CF93DF93D82E8A01EB017B01E40EAA
:1025C000F51ECE15DF0559F0D7FE12C0FE0184912D
:1025D0000E94A61221968111F4CF0FEF1FEFC801C0
:1025E000DF91CF911F910F91FF90EF90DF900895B1
:1025F0008881EECF0F931F93CF93DF931F92CDB7B8
:10260000DEB782E0898342E450E069E171E280E86C
:102610000E94D4120E941112DC0112960D911C919D
:102620000115110589F0D801ED91FC910280F3812B
:10263000E02DBE016F5F7F4FC801099597FD04C073
:10264000F80100851185ECCF89810F90DF91CF9142
:102650001F910F910895615030F02091F100FC011D
:1026600020830196F8CF289884E68093AA020895E3
:10267000462F477066956695669590E8699FB0010C
:10268000112464557D4F860F972F911DFC01808189
:1026900090E021E030E0042E02C0220F331F0A94A4
:1026A000E2F78223932302C0959587954A95E2F736
:1026B0000895AF92BF92CF92DF92EF92FF920F9365
:1026C0001F93CF93DF936C017B018B01040F151FC8
:1026D000EB015E01AE18BF08C017D10759F0699130
:1026E000D601ED91FC910190F081E02DC601099594
:1026F000892B79F7C501DF91CF911F910F91FF9041
:10270000EF90DF90CF90BF90AF9008953FB7F894CF
:102710008091110290911202A0911302B0911402C3
:1027200026B5A89B05C02F3F19F00196A11DB11D2C
:102730003FBFBA2FA92F982F8827BC01CD01620F68
:10274000711D811D911D42E0660F771F881F991F23
:102750004A95D1F708958F929F92AF92BF92CF92F0
:10276000DF92EF92FF926B017C010E9486134B0176
:102770005C01C114D104E104F104B9F00E94861394
:10278000681979098A099B09683E7340810591059A
:1027900080F321E0C21AD108E108F10888EE880E22
:1027A00083E0981EA11CB11CE4CFFF90EF90DF9056
:1027B000CF90BF90AF909F908F9008958F929F92EF
:1027C000AF92BF92CF92DF92EF92FF920F931F933F
:1027D000CF93DF936C017B018A0180911D018823D7
:1027E00009F45CC08091AB02882309F457C0809142
:1027F0009D0280FF05C08091E00082608093E00030
:10280000E801B12C8AEFA82E93E0892E2AE3922EBC
:10281000209711F4BB20D9F10E94001281110AC047
:10282000AA94AA20D9F161E070E080E090E00E94D3
:10283000AB13EECF8C171D0611F00CF08C2F9FB749
:10284000F8948092E9002091E80025FD02C09FBF26
:10285000DFCF282F30E0C21BD30BF701815020F0CF
:1028600041914093F100FACFE20EF31EBB2021F01C
:102870009092E800B12CEBCF8091E80085FDE7CF86
:102880009092E800BB24B394209709F3F3CF5D98AE
:1028900084E680939C02101611063CF081E090E0E3
:1028A000F6019383828310E000E0C801DF91CF91AD
:1028B0001F910F91FF90EF90DF90CF90BF90AF905E
:1028C0009F908F9008952D9A0895BC0190E080E02C
:1028D0000C94AB138FB18095807F669B88601C9BA6
:1028E0008460089590911D02982329F490911E020E
:1028F000982381E009F480E0089580E00C94C711EA
:1029000080389105B8F460347105A0F420E191E0BD
:1029100061FD94E060FD990F62FD9295687F269FAE
:10292000D0011124A80FA455BD4F8C9140FF03C0C6
:10293000892B8C93089590958923FBCF2F923F92FA
:102940004F925F926F927F928F929F92AF92BF92BF
:10295000CF92DF92EF92FF920F931F93CF93DF936B
:10296000CDB7DEB728970FB6F894DEBF0FBECDBF48
:102970006D30D9F030900101409021025090220238
:10298000832D90E098878F836A3051F51092200252
:1029900010921F0223E0880F991F2A95E1F7480E35
:1029A000591E509222024092210281E090E0289626
:1029B0000FB6F894DEBF0FBECDBFDF91CF911F9150
:1029C0000F91FF90EF90DF90CF90BF90AF909F90CE
:1029D0008F907F906F905F904F903F902F900895D1
:1029E000909102019B83A0901F02B0902002E5E02D
:1029F0006E9FB0011124CB0184559F4F3C016501AE
:102A000019829981212C953029F0C3010196F30197
:102A100024903C014201F8E0FA8320FE1DC02B8186
:102A20002C8310E000E00315D0F4F601E00FF11F55
:102A3000FE83ED83F12CE12CE31480F5B4016E0DDF
:102A40007F1D4C818D819E810E948014FFEFEF1AC3
:102A5000FF0AF2CF1C82E5CF8B818111FBCF269438
:102A60002A8121502A838F819885880E991E2111F1
:102A7000D4CF99819F5F9983EF81F885CE0EDF1EB9
:102A8000963009F0BECFC501F9813F9E800D911DA2
:102A900011249093200280931F0287CF0F5F1F4F56
:102AA000C2CF8F929F92AF92BF92CF92DF92EF925E
:102AB000FF920F93CF93DF935B01EC014C01840EE7
:102AC000911C6B01C20ED11CC815D905D4F4750137
:102AD000B7FE02C0F12CE12CC60121E4C216D104DC
:102AE00014F080E490E0E816F9064CF4402FB701AA
:102AF000CE010E9480148FEFE81AF80AEDCF2196DC
:102B0000E3CFDF91CF910F91FF90EF90DF90CF90C7
:102B1000BF90AF909F908F9008952F923F924F92C9
:102B20005F926F927F928F929F92AF92BF92CF925D
:102B3000DF92EF92FF920F931F93CF93DF9300D01A
:102B40001F92CDB7DEB79B838A837B016A0109831D
:102B50008901061B170B17FF03C011950195110979
:102B600046018A819B81881A990A97FE03C0919435
:102B700081949108801691065CF49C2D8D2D69013D
:102B8000292F382F9A818B81FB82EA82E92EF82E39
:102B90008A819B81C816D9065CF49E2D8F2D790100
:102BA000292F382F9A818B81DB82CA82C92ED82E99
:102BB00016018A819B81281A390A29014E185F085B
:102BC00057FE03C0519441945108310137FE03C0B0
:102BD0009FEF691A790A759467948FEFE216F306EE
:102BE0000CF481E0A82E880FBB088A819B81C8164F
:102BF000D906CCF04981BC01C701801691061CF0B2
:102C0000B7018A819B810E9480146418750877FE41
:102C100004C0EA0CFB1C620C731C8A819B81019628
:102C20009B838A83E2CF0F900F900F90DF91CF911B
:102C30001F910F91FF90EF90DF90CF90BF90AF90DA
:102C40009F908F907F906F905F904F903F902F90CC
:102C50000895089590E080E008958F929F92AF923A
:102C6000BF920F931F93CF93DF93CDB7DEB7A1979A
:102C70000FB6F894DEBF0FBECDBF19A2423008F4E4
:102C80004AE08E010F5D1F4F842E912CB12CA12C98
:102C9000A50194010E949333E62FB901CA01EA30DD
:102CA00044F5E05DD801EE938D01232B242B252BD9
:102CB00079F790E080E0109769F0FD010190002025
:102CC000E9F73197AF014A1B5B0BBD018CEF96E032
:102CD0000E945913A1960FB6F894DEBF0FBECDBF68
:102CE000DF91CF911F910F91BF90AF909F908F90E8
:102CF0000895E95CD7CFFC0101900020E9F73197F6
:102D0000AF01481B590BBC018CEF96E00C94591392
:102D1000CF92DF92EF92FF92CF93DF936C01990FE6
:102D2000EE08FF08F7FE19C06DE28CEF96E00E94F6
:102D30009E14EC0166277727CB016C197D098E095B
:102D40009F094AE00E942D168C0F9D1FDF91CF91A5
:102D5000FF90EF90DF90CF9008954AE0C701B60151
:102D6000DF91CF91FF90EF90DF90CF900C942D16D4
:102D70000C944B331F920F920FB60F9211248F9326
:102D80009F938091E1009091E100937F9093E10007
:102D900083FF0FC01092E90091E09093EB00109236
:102DA000EC0092E39093ED001092AB0298E09093C8
:102DB000F00082FF22C093E09093E9009091F2002E
:102DC000992319F09AE39093E80090919C0299233B
:102DD00041F090919C02915090939C02911101C0FE
:102DE0005D9A9091AA02992341F09091AA02915084
:102DF0009093AA02911101C0289A84FF18C0809173
:102E0000E2008E7E81608093E2008091E1008F7EFF
:102E10008093E10080919D028E7E806180939D026F
:102E20009F918F910F900FBE0F901F90189580FF6C
:102E3000F7CF8091E2008E7E80618093E2008091E6
:102E4000E1008E7E8093E10080919D028E7E816004
:102E5000E5CF1F920F920FB60F921124CF92DF92FF
:102E6000EF92FF920F931F932F933F934F935F9394
:102E70006F937F938F939F93AF93BF93EF93FF9342
:102E8000CF93DF93CDB7DEB76C97DEBFCDBF109287
:102E9000E9008091E80083FF25C068E0CE014596F7
:102EA0000E942B1382EF8093E8008D8987FF39C041
:102EB0009091E80090FFFCCF982F907609F034C1F4
:102EC0009E894F89588D2F89F88C911131C0803897
:102ED00061F580919B028093F1001092F1008EEFDA
:102EE0008093E8006C960FB6F894DEBF0FBECDBF9E
:102EF000DF91CF91FF91EF91BF91AF919F918F9112
:102F00007F916F915F914F913F912F911F910F9101
:102F1000FF90EF90DF90CF900F900FBE0F901F901B
:102F200018959EEF9093E800C7CF1092F100D5CF8F
:102F3000913059F48111D3CF4130510581F6809100
:102F40009B028D7F80939B02CACF933049F48111FD
:102F5000C6CF4130510519F680919B028260F2CFB5
:102F6000953041F48091E80080FFFCCF20682093E9
:102F7000E300B5CF963009F0A9C00B8D1C8D22E07F
:102F80001092E9001092990210929802F2122EC04B
:102F900010929702109296020E94FA121F8299E0F4
:102FA0009983FA8291E09E8390EA98879AEF9987B5
:102FB0002091980230919902275F3F4F3C832B83E9
:102FC0008D831092E900109299021092980210934A
:102FD00097020093960249E050E0BE016F5F7F4F79
:102FE00080E00E94D4120E94FA1279CF10939702C7
:102FF000009396020E941112DC0112960D911C9111
:103000000115110509F451C1D801ED91FC9104801D
:10301000F581E02DBE016B5E7F4FC80109950097D9
:1030200009F03EC1F80100851185EACFF3E0FF12F7
:103030000EC08F89882309F440C0823061F440E8D3
:1030400067E08DE791E20E94A519811148CF81E2E6
:103050008093EB0047CF813029F440E86BE081E7B3
:1030600091E2F1CF833099F70E941112DC011296A0
:10307000ED90FC908E010F5F1F4F6801E114F10489
:1030800079F0D701ED91FC910680F781E02DB80130
:10309000C7010995080F111DF701E084F184EECFF7
:1030A000D8011C92F60101900020E9F73197BF0189
:1030B0006C197D0940E0C601C6CF6BE571E2FB01EA
:1030C000449150E080E80E94D41209CF973009F46F
:1030D000BECF983021F481E08093F10000CF993089
:1030E00009F0FDCE837009F0B2CFE3E2F1E081E0B8
:1030F00031E096E32191222371F08093E90030932F
:10310000EB00DF0111972C912093EC009093ED00E0
:103110008F5F873079F78EE78093EA001092EA009C
:103120008F898093AB02DBCE8B8D9C8D1092E90052
:1031300010929902109298029093970280939602AF
:10314000898D811192C08E899D89913A49F481328D
:1031500009F07DCF47E050E066E171E080E0B3CF59
:10316000913209F074CF833269F48F89988DB0E081
:10317000A0E08093120190931301A0931401B093E7
:103180001501ADCE803269F48091E80082FFFCCF5A
:1031900067E086E191E00E942B138BEF8093E800BB
:1031A0009ECE823209F09BCE8F8980931D01EEEF77
:1031B000FFE7859194918B3F9C4D51F1E0E0F8E061
:1031C0008091160190911701A0911801B0911901F9
:1031D000803B9440A105B105F1F480911D0180FD73
:1031E0001AC0EE3F8AE0F80789F587E797E79183F1
:1031F00080838091600080939A0288E19BE00FB603
:10320000F894A895809360000FBE9093600067CEFD
:10321000EEEFFAE0D5CF808191818737974709F0AB
:103220005ECEA89580916000886180936000809157
:103230009A0280936000EE3F2AE0F20789F08091C5
:10324000FE0A9091FF0A9183808349CE808191810B
:103250008737980751F29093FF0A8093FE0AC5CFF3
:103260001092FF0A1092FE0A3ACE0E941112DC015F
:1032700012960D911C910115110509F4E8CED801A3
:10328000ED91FC910190F081E02DBE016B5E7F4FCE
:10329000C8010995811123CEF80100851185EBCF76
:1032A000181619060CF41BCED2CEF1E0FF12BECEDA
:1032B0006FE571E204CF1F920F920FB60F921124A7
:1032C0002F933F938F939F93AF93BF93809115025A
:1032D00090911602A0911702B0911802309110023D
:1032E00023E0230F2D3758F50196A11DB11D209322
:1032F00010028093150290931602A0931702B093C8
:1033000018028091110290911202A0911302B091C3
:1033100014020196A11DB11D809311029093120217
:10332000A0931302B0931402BF91AF919F918F911C
:103330003F912F910F900FBE0F901F90189526E888
:10334000230F0296A11DB11DD2CFEF92FF920F93D2
:103350001F93CF93DF93F82E192FE62E042F81E0D1
:10336000860F880F0E94A61283E00E94A612CF2D1E
:10337000D12FEC0EFD2EF11CCE15DF05B9F007FFA5
:1033800013C0FE0184910E94A612182F80E00E94B3
:10339000A612812321968111EFCFDF91CF911F914A
:1033A0000F91FF90EF9008958881EDCF81E0F5CFE8
:1033B000ECEAF6E01382128288EE93E0A0E0B0E03F
:1033C00084839583A683B7838DE291E09183808384
:1033D0008FEF9FEF95878487ECEFF6E013821282E0
:1033E0008FE391E0918380830895CF93DF93CDB7EE
:1033F000DEB764970FB6F894DEBF0FBECDBF7894EA
:1034000084B5826084BD84B5816084BD85B58260E9
:1034100085BD85B5816085BD80916E00816080939A
:103420006E00109281008091810082608093810003
:103430008091810081608093810080918000816013
:1034400080938000809191008260809391008091B0
:1034500091008160809391008091900081608093C1
:1034600090008091C10084608093C1008091C10070
:1034700082608093C1008091C10081608093C1000F
:103480008091C30081608093C3008091C0008260FE
:103490008093C0008091C20081608093C2008091BF
:1034A0007A00846080937A0080917A0082608093B1
:1034B0007A0080917A00816080937A0080917A000E
:1034C000806880937A001092AB0210929B02109257
:1034D0009D028091D70081608093D70080EA80931D
:1034E000D80089B5806189BD89B5826089BD09B47C
:1034F00000FEFDCF61E070E080E090E00E94AB1341
:103500008091D8008F7C80618093D8008091E0000A
:10351000807F8093E0008091E1008E7E8093E100C7
:103520008DE08093E200559A209A81EC80937C0094
:1035300085B1806F85B984B1877E84B984B1876E87
:1035400084B95E9A5F988AB1806D8AB9769A6E98CE
:1035500081B3806F81BB899880B38D7080BB80E51B
:103560008CBD81E08DBD85E090E00E9465145F9A7E
:1035700085E090E00E9465145E985C98ECE5F6E0CA
:1035800084918EBD00000DB407FEFDCF319606E09C
:10359000E936F007A9F75C9A81E88093640080918E
:1035A00065008160809365000E947D140E946A140A
:1035B00087FF15C05C9885EA8EBD00000DB407FE3C
:1035C000FDCF5C9A2E982F982D9880916400806290
:1035D0008093640081E083BF889513BEFCCF0E9476
:1035E0006A1482FF48C02D980E946A148478843837
:1035F000E1F40E94631488EC90E00E9465142F9817
:1036000082E090E00E944B338F3F29F06FEF82E021
:1036100090E00E94533384EF91E00E9465142F9A4A
:103620000E946A1484788438D9F30E946A148471E1
:103630008431E1F40E94631488EC90E00E946514E8
:103640002E9882E090E00E944B33882329F060E0BE
:1036500082E090E00E94533384EF91E00E94651471
:103660002E9A0E946A1484718431D9F388EC90E018
:103670000E946514B4CF0E94631482E090E00E941F
:10368000B816882309F4A0C03E9A3F9A81E090E0E2
:103690000E94B816182F1470912E81FF10C01111BE
:1036A0002E98B1EF4B2E55245A9408E010E00E945A
:1036B0006A1486FF8CC02E9A2F9A0E94631482E3AC
:1036C00090E00E9465140E946A148111F8CF80E195
:1036D00080930001809164008E7F809364008091CC
:1036E0007A00806480937A0080917A0086FDFCCF16
:1036F000E0907800F09079000E948613AB01BC0145
:10370000C701B0E0A0E0DC01992788278C019D016A
:10371000040F151F261F371FC901B801209164002F
:10372000216020936400611571058105910511F0F8
:103730000E9442330BE612E01B830A832BE432E043
:103740003D872C8720E6822E912CA12CB12C38E3CA
:10375000C32ED12CE12CF12C0E94F332A50194014F
:103760000E94613360587109AC85BD856D937D936E
:10377000BD87AC870E94F332A70196010E94613396
:10378000EA81FB8161937193FB83EA830C851D853C
:103790000F55124009F78FB7F894409115025091D8
:1037A000160260911702709118028FBF80911B0260
:1037B000882309F4D1C010921B0280E090E0892B8D
:1037C00051F30E940000E7CF3E983F985FCF9920C9
:1037D00031F024E04216510411F42E9A2F9881E022
:1037E0000E94C711920157FE04C0222733272419D3
:1037F000350927703327C20157FC0796A3E095953A
:103800008795AA95E1F757FE05C00197A801421BCD
:10381000530B9A01AC015695542F44275795479561
:1038200044555D4FD12CC12C3801621A730A8E3F6A
:103830006FEF9607B1F1DA01AC56BF4F7A0170E035
:1038400060E0F601E455FA4F5F018F3F980779F089
:10385000F501E60FF71FE491F0E01F01022E01C011
:10386000220C0A94EAF7F70184882828248A211573
:10387000310571F0F501E60FF71FE491F0E0062C39
:1038800002C0F595E7950A94E2F7FC91EF2BEC93D3
:103890006F5F7F4F1196FFEFEF1AFF0A68357105D2
:1038A000A1F6019668E5C60ED11C40585F4FA0EB0B
:1038B000CA16D10409F0BBCF0E947D148FE090E0BE
:1038C0000E946514BFEF4B1A5B0AE9E14E165104E2
:1038D00009F0EDCE992011F02F9A2D9880E991E012
:1038E0000E9465140E94631481E090E00E94B81663
:1038F00080FFE5CE8AE090E00E94B8169FEF980F17
:103900009E3F08F0DCCE22E330E03093200220938B
:103910001F0228E330E030932202209321020BE0C3
:1039200010E01B830A83682F8CEF96E00E949E14A0
:103930008A819B810E94B8160A811B810F5F1F4FED
:103940001B830A830131110571F70E947D1488EEF3
:1039500093E00E946514B3CE90911C02342F391B62
:10396000932F20910001321748F49F5F921708F0BF
:1039700024CF81E083BF889513BE1FCF91E0909341
:103980001B0240931C022091190230911A022F5FF2
:103990003F4F30931A0220931902ECEAF2E08111B2
:1039A0008FEF002481938193819381930394D1F7C6
:1039B00010922202109221021092200210921F02F5
:1039C00080911E0280931D020E946A1480931E0241
:1039D00000E020E440E870E060E090E080E00E94D9
:1039E000511501E020E440E470E060E080E290E006
:1039F0000E94511500E02FE330E04FE550E06FE307
:103A000070E080E290E00E948D152CE330E04FE5FD
:103A100050E06CE370E080E290E00E948D1524E0BD
:103A200040E16CE370E08CE290E00E94511524E0EC
:103A300040E16CE370E084E490E00E9451158091D5
:103A40009502813011F00C94972F80911101811112
:103A500010C08091940281110CC080910F0190914F
:103A60001001892B31F48FEF9FEF90931001809319
:103A70000F0180910F0190911001892B09F0A7C6C9
:103A800080919302811147C388E00E9472148823B9
:103A900079F08091910281110BC080910B0190917E
:103AA0000C0191958195910990930C0180930B01E4
:103AB00084E00E9472148823A1F080919102811108
:103AC00010C080918F028C3161F480910701909138
:103AD0000801181619062CF488E0809391021092C0
:103AE0008F0280918E02811125C280918D028111F9
:103AF0005CC080918B0290918C02209105013091E5
:103B00000601821B930B0296059730F58091920275
:103B1000811122C00E94F3322AE030E040E050E000
:103B20000E94613370938A0260938902660F771F47
:103B300065597D4FDB018D919C9190938C02809310
:103B40008B0280910D0190910E01919581959109C3
:103B500090930E0180930D01209190022C3149F435
:103B60008091690290916A02019690936A02809313
:103B700069028091690290916A024E97B4F0809137
:103B80009202811112C02C3181F48091090190912F
:103B90000A01181619064CF488E0809392021092DC
:103BA000900210926A021092690280918D02813017
:103BB00009F0AFC0E0918902F0918A02EE0FFF1F79
:103BC000E55BFD4F208131818091090190910A01CF
:103BD0000396821793071CF02D3E3F4F64F40E941A
:103BE000F3322AE030E040E050E00E94613370930D
:103BF0008A026093890280910301909104012091CF
:103C0000050130910601821B930B97FF03C091952C
:103C1000819591090497E4F0809107019091080142
:103C20002091090130910A01821793078CF4821BBD
:103C3000930B8D3E9F4F64F40E94F3322AE030E0F4
:103C400040E050E00E94613370938A0260938902E1
:103C5000E0918902F0918A02EE0FFF1FE559FD4FB6
:103C6000408151812091050130910601CA01821BDA
:103C7000930B97FF03C09195819591094097ACF004
:103C800080919202811111C02417350714F00C9411
:103C9000142780910D0190910E01019631F481E07D
:103CA00090E090930E0180930D01209190028091FD
:103CB000690290916A022C3129F4019690936A026C
:103CC000809369028091690290916A020A970CF1CF
:103CD0008091920281111DC02C31D9F4809109018B
:103CE00090910A0118161906A4F420910701309149
:103CF0000801821793076CF44396821793074CF0E0
:103D000088E0809392021092900210926A021092C0
:103D1000690280918D02823009F00CC11092470235
:103D2000109248021092490210924A022091090111
:103D300030910A01B9016C5F7F4FABE6B2E00BE452
:103D400012E01B830A83EA81FB8141915191FB833D
:103D5000EA8364177507DCF1483EFFEF5F0784F0E4
:103D60008D919C91119797FD0F9614E095958795ED
:103D70001A95E1F7FC01E95BFD4F80818F5F80833D
:103D8000403F8FEF58071CF18D919C91119797FD43
:103D90000F96F4E095958795FA95E1F7FC01E95BBC
:103DA000FD4F80818F5F8083483F5F4F84F08D910E
:103DB0009C91119797FD0F96E4E095958795EA956C
:103DC000E1F7FC01E95BFD4F80818F5F80831296F4
:103DD0004A815B814F55524009F0B5CFE091070110
:103DE000F09108014091030150910401E217F3079B
:103DF0006CF4DA0157FD1F9674E0B595A7957A9596
:103E0000E1F7A95BBD4F8C918A508C9371E060E023
:103E10009091480280914702891708F070E0872F3F
:103E2000962FDC01A95BBD4F709149026C91671719
:103E300010F482E090E0DC01A95BBD4F7C916091C1
:103E40004A02761710F483E090E090938A02809300
:103E5000890264E0880F991F6A95E1F7DC011896E2
:103E600060910501709106017D01E61AF70AF7FEDF
:103E700003C0F194E194F108D090920205E0E016BD
:103E8000F104ECF0D1101BC00796861797070CF4CD
:103E9000DCC780910D0190910E01019609F0D5C704
:103EA00081E090E090930E0180930D01A617B70773
:103EB00034F48FEF9FEF90930E0180930D01A0914A
:103EC00090028091690290916A02AC3129F40196C6
:103ED00090936A02809369028091690290916A02CC
:103EE000059744F1D11026C0AC3121F51216130606
:103EF0000CF52E173F07F4F42D5E3F4F2E173F07AA
:103F0000CCF0461B570B20910D0130910E01429FC2
:103F1000C001439F900D529F900D11241816190651
:103F20004CF488E0809392021092900210926A0200
:103F30001092690280918E02813009F0ECC04091AC
:103F40008D022091050130910601609192028091CD
:103F5000030190910401411184C740918B0250915B
:103F60008C02DA01A21BB30B9D012E5F3F4F25305F
:103F7000310588F461110FC090938C0280938B02FD
:103F800080910D0190910E019195819591099093E9
:103F90000E0180930D012091900280916902909111
:103FA0006A022C3129F4019690936A028093690287
:103FB0008091690290916A024E970CF4ACC0611135
:103FC000AAC02C3109F0A7C08091090190910A0183
:103FD000181619060CF09FC088E080939202109288
:103FE000900210926A021092690280918D028230D2
:103FF00009F091C0209103013091040180910501E5
:10400000909106014091090150910A01B901681B84
:10401000790B605F7F4FA09192026132710508F0C9
:10402000CFC7A111CDC7E0910701F09108016091C0
:104030000D0170910E014E175F070CF0AAC7A90180
:1040400042505109841795074CF46F3F7F4F31F46C
:1040500041E050E050930E0140930D012E5F3F4F21
:104060002817390764F480910D0190910E01019792
:1040700031F48FEF9FEF90930E0180930D0120910B
:1040800090028091690290916A022C3129F4019684
:1040900090936A02809369028091690290916A020A
:1040A0000597CCF180919202811135C02C3199F5A0
:1040B0008091090190910A011816190664F5209162
:1040C000070130910801821793072CF54396821758
:1040D00093070CF180910301909104012091050157
:1040E00030910601821B930B40910D0150910E01FE
:1040F000849F9001859F300D949F300D11241216DE
:1041000013064CF488E08093920210929002109271
:104110006A021092690280919302E0900701F09088
:104120000801FF86EE864090090150900A01813017
:1041300009F079C088E00E947214109192028823DD
:1041400069F011110BC080910D0190910E019195B4
:104150008195910990930E0180930D0184E00E9456
:104160007214882371F011110CC0809190028C316F
:1041700041F4141415042CF488E0809392021092F8
:10418000900280E10E94721410919102882369F0DC
:1041900011110BC080910B0190910C0191958195AB
:1041A000910990930C0180930B0180E80E94721496
:1041B000882381F011110EC080918F028C3151F44F
:1041C0000E851F85101611062CF488E0809391024D
:1041D00010928F0280E40E94721410919102882341
:1041E00069F011110BC080910B0190910C01919518
:1041F0008195910990930C0180930B0180E20E94BC
:104200007214882381F011110EC080918F028C31BD
:1042100051F4EE84FF841E141F042CF488E0809374
:10422000910210928F028091940290E00196877023
:104230009927482F8093940280911101882329F0B7
:10424000473019F48150809311012091450230913B
:104250004602809143029091440260918F025091F6
:1042600011017091900250FF02C00C94062C47304F
:1042700011F00C94F92B6F5F60938F027F5F709346
:10428000900260900301709004010091050110916B
:1042900006011F830E838E859F8584199509889F4B
:1042A0009001899F300D300D112439872887309176
:1042B00091023C83409192024A83B09090022090F8
:1042C0000B0130900C0180900D0190900E016091D7
:1042D0003F02709140024091410250914202809110
:1042E0003D0290913E02998B888B2091450230913E
:1042F00046028091430290914402A0913B02B0910A
:104300003C02A0908F02F0E0E0E000E4600E711C3F
:1043100073010E811F81E01AF10AFB86EA86CA84C6
:10432000DB84CE0EDF1ECC9C7001CD9CF00CF00C1B
:10433000112412E5E116F104E4F50885198502352A
:104340001105BCF51C811111D0C60A810111CDC621
:10435000088519850E151F050CF4B8C66A3071055D
:1043600014F00C9479324A3051051CF1E888F98830
:10437000EA0EFB1E15E0E116F104DCF4EE84FF8486
:104380004E145F040CF08FC61816190634F42F5F14
:104390003F4F0197A394A6E0B0E04115510511F4F9
:1043A00041E050E06115710509F0B8C6BA0141E07D
:1043B00050E0E054F109E0341FEFF10709F0AFCF0E
:1043C0009093440280934302309346022093450227
:1043D0002889398930933E0220933D02B0929002A1
:1043E000B0933C02A0933B02A0928F0250934202F2
:1043F000409341027093400260933F0230920C015F
:1044000020920B0190920E0180920D014BE6C42E7A
:1044100042E0D42EEBE4F2E0F12C8081918102960F
:1044200091838083D6016D917D916D013BE4A32E34
:1044300032E0B32E2BE632E0E12CD9018D919D9133
:104440009D018B01081B190B009FA001019F500DBE
:10445000500D11244A315105BCF480819181D50160
:104460004D915C918C01041B150BA801449F8001A8
:10447000459F100D100D11240A3111052CF4FE1466
:1044800019F0449791838083E39412E0A10EB11C4C
:104490004AE0E412D2CFF3943296F412BECF19E37D
:1044A000412E12E0512E03E011E01D830C8301E93F
:1044B000C02E02E0D02E87E0E82E81E0F82E0FE338
:1044C00012E02BE031E03B832A8393E4892E92E0D3
:1044D000992E2BE3222E22E0322EF20131E030839E
:1044E000AC81BD818D919C91A5E2A80FB0E0A45D47
:1044F000B94F2C9126FD10828097889F9001899F4B
:10450000300D300D11242031334014F0D2011C92B3
:10451000BFEF4B1A5B0A8081813049F4F80180813A
:104520009181892B21F421E030E031832083D10176
:104530008D919C911197009719F001978D939C9301
:10454000ABE66A2EA2E07A2EBBE4AB2EB2E0BB2E25
:10455000F5018081918188349105C4F00E94F33285
:1045600020E630E040E050E00E946133605871097D
:10457000D5016D937C930E94F33228E330E040E054
:1045800050E00E946133F30171836083AC81BD818F
:104590002D913C912B5F3F4F30933802209337028F
:1045A000F7018081918105969093360280933502C0
:1045B000D3016D917C916C5F7F4F70933402609357
:1045C0003302F501408151814C5F5F4F50933202BD
:1045D00040933102261B370B229FB001239F700DA1
:1045E000700D11246A31710554F5841B950B889F59
:1045F0009001899F300D300D11242A313105FCF4D2
:104600000E94F33220E630E040E050E00E94613347
:1046100060587109D5016D937C930E94F33228E3B1
:1046200030E040E050E00E946133F3017183608329
:10463000D4018D919C91119701968D939C938091BB
:104640003702909138022091330230913402821B5C
:10465000930B805C9F4F889F9001899F300D300D98
:1046600011242A3131058CF5809135029091360262
:104670002091310230913202821B930B889F90016E
:10468000899F300D300D11242A313105F4F40E9438
:10469000F33220E630E040E050E00E9461336058A1
:1046A0007109F501718360830E94F33228E330E0E1
:1046B00040E050E00E946133D3016D937C93F4019C
:1046C00080819181019691838083F2E0AF0EB11CCD
:1046D00022E0620E711C4C855D854A155B0509F070
:1046E00037CFAC81BD818D919C911197813491051B
:1046F00014F01D921C92EC81FD818081918197FFC5
:1047000004C020E430E031832083AC81BD816D9111
:104710007C91EA81FB8181919191FB83EA83D701AE
:104720002D913C911197F6014081411102C5D801AC
:104730004D915C9111974115510569F0EAE0F0E067
:10474000E41BF50B2E1B3F0BF701318320834F5FDA
:104750005F4F4D935C93880F991F860F971FAC8115
:10476000BD818D939C93D7018D919C9111978F97CB
:104770003CF0EFE2F0E0ED93FC93D8011D921C9227
:10478000F6018081883008F010822C813D812E5FF7
:104790003F4F3D832C833FEFC31AD30A42E0E40E20
:1047A000F11C0E5F1F4F52E0850E911C62E0260E39
:1047B000311C8BE392E08415950509F08ECE809133
:1047C00030028F5F843009F4D2C4809330020BE64C
:1047D00012E01B830A836BE4662E62E0762ED3011F
:1047E0006D917D913D01EA81FB8181919191FB83E6
:1047F000EA8327E031E24FE051E280960E94EE101A
:10480000EC84FD84E614F70451F70FE312E01987F6
:10481000088727E031E03F832E8343E0442E41E0C8
:10482000542E5BE0252E51E0352E59011D830C835B
:104830001A8200E020E44FE070E060E090E080E069
:104840000E945115AC81BD818D919D91BD83AC833A
:1048500020918E02EA802E0D20FDBEC4009709F043
:104860009BC480913002823008F087C42DED30E285
:1048700041EF50E270E060E081E090E00E94EE10D5
:104880002DED30E247EC50E264E170E081E090E031
:104890000E94EE1014E1F12CE12C0E2D1B861A86DD
:1048A000602F8A850E94381390E090932F028093A6
:1048B0002E02019789F5D1018D919C91813091054E
:1048C00009F0C9C7612F8A850E943813F5018080DD
:1048D00091808E0C9F1CD201CD90DC909601205EC1
:1048E0003F4F482FB4018A859B85820F931F0E94FA
:1048F0008014B8E3CB16D1047CF0612F8A850E9426
:104900003813E0E2CE1AD108482FB4018A859B857E
:104910008C0D9D1D0E9480144A855B854F5F5F4F03
:104920005B874A874B30510509F0BACF5FEFE51A34
:10493000F50A1F5F6DE0E616F10409F0AECF82E0E4
:10494000A80EB11C92E0490E511CA2E02A0E311CA7
:104950001A81113009F00EC401E912E01B821A829B
:10496000D8018D918D018823A1F1EA81FB81E55F5A
:10497000FE4F808191818130910509F09BC7EA81CA
:10498000FB81E95FFE4F7F01608171816C5F7F4F2A
:104990002A813B812D5F3E4F6901D9018D919C9108
:1049A00029EC3EE14BED5EE184960E94EE10F601AB
:1049B000808191818833910564F0F7016081718174
:1049C0006C5F7F4F29EC3EE14BED5EE14C970E941E
:1049D000EE10EA81FB813296FB83EA83349709F07B
:1049E000BFCF00E020E440E270E060E090E080E0D3
:1049F0000E94511520E440E270E060E080E690E023
:104A00000E94511522E040E470E060E080E290E016
:104A10000E945115D090110101E021E04D2D70E070
:104A200060E080E290E00E9451150BE612E01B83EB
:104A30000A833BE4E32E32E0F32ED7010D911D9162
:104A40007D010D3FBFEF1B0754F4EA81FB8180819C
:104A5000918140E062E070E084960E948014C80179
:104A600080964D9750F4AA81BB818D919C9140E036
:104A700063E070E084960E948014C80140960D9710
:104A800050F4EA81FB818081918140E064E070E034
:104A900084960E948014085F1F4F0530110550F462
:104AA000AA81BB818D919C9140E065E070E0849685
:104AB0000E9480140A811B810E5F1F4F1B830A8393
:104AC0006E147F0409F0B9CF23E432E03F872E87CC
:104AD0004BE352E05D834C835B874A87AFE3B2E0F0
:104AE000B98BA88B1A8222242394312C1D2D11708E
:104AF0001A8B00E020E440E270E060E080E690E0A5
:104B00000E94511521E030E030932D0220932C02B9
:104B1000A889B9894D905D90B98BA88B2AE030E0C7
:104B200024193509229FC001239F900D900D112457
:104B300064E170E00E94D0337C8B6B8B70932B020E
:104B400060932A0280918E02EA808E0D80FF06C754
:104B5000F0909402F982F0FC0CC0109129024114EB
:104B6000510409F0D4C6123008F481C311501093D7
:104B70002902109129021093280241145104A9F02E
:104B8000209127023AE04316510434F4898163E00E
:104B90000E94C433911109C0822F90E0019665E014
:104BA00070E00E94D0338093270280912702EB8827
:104BB000FC884DE1E40EF11C6B887C885FE1650E9A
:104BC000711CCB88DC8861E1C60ED11C81115EC3EB
:104BD00001E02B893C892A5E3F4F4EE750E06B890C
:104BE0007C89615F7F4F8EE790E00E948D152B8955
:104BF0003C892E5D3F4F4DE750E06B897C89695EB3
:104C00007F4F8DE790E00E948D152B893C89275EB0
:104C10003F4F49E650E0B60189E690E00E948D15CD
:104C20002B893C89245E3F4F4AE650E06B897C89A2
:104C3000665E7F4F8AE690E00E948D1593014BE6F9
:104C400050E0B7018BE690E00E948D15EA85FB8568
:104C5000808091804114510409F06FC68114910441
:104C600011F00C94953201E0AB88BC88F0E4AF0EF3
:104C7000B11C950149E650E06B897C896E5C7F4FE1
:104C800089E690E00E948D15950148E650E06B8919
:104C90007C896B5C7F4F88E690E00E948D159501C2
:104CA00047E650E06B897C89685C7F4F87E690E03F
:104CB0000E948D15950146E650E06B897C89635C06
:104CC0007F4F86E690E00E948D152FE83DE140EE93
:104CD0005DE1B30185E690E00E94EE1021E43DE144
:104CE00047E65DE16B897C896C5C7F4F88E690E0EC
:104CF0000E94EE1001E022E045E0B70182E790E07B
:104D00000E94511541E0B60187E790E00E948014AF
:104D1000113009F0F9C323EE3CE141E15DE16B891B
:104D20007C896B5D7F4F81E690E00E94EE100B89DD
:104D30001C890E5E1F4F23E63BE14BE75BE1B801A8
:104D40008DE690E00E94EE10EA80FA88EF100DC028
:104D500089818770863049F421E43BE141E55BE1DC
:104D6000B8018DE690E00E94EE10F101E170FF279E
:104D7000EE0FFF1FED5BFD4FE080F180AE85BF853C
:104D8000CD90DC90C70103968C159D054CF440E056
:104D90006B897C89675E7F4F81E790E00E94801479
:104DA000B6E0EB0EF11CEC14FD044CF42FE13BE1FA
:104DB0004FE25BE1B8018DE690E00E94EE108114B5
:104DC000910449F02FE13BE14DE05BE1B8018DE654
:104DD00090E00E94EE1027EB3AE141EE5AE16B8938
:104DE0007C89695F7F4F8AE690E00E94EE1045283B
:104DF00009F0B0C3892809F0BCC36B897C89615D67
:104E00007F4F25E93AE145EA5AE188E790E00E94C0
:104E1000EE106B897C89685C7F4F2BE63AE14FE7A7
:104E20005AE186E690E0A2C34217530714F00C94AF
:104E3000551E80910D0190910E01019711F00C9477
:104E4000551E8FEF9FEF0C94511EA617B7070CF05D
:104E500036C880910D0190910E01019709F02FC87D
:104E600028C8413009F0C1C8AC01421B530B465F52
:104E70005F4F4531510508F068C0611166C060910F
:104E80000701709108014091090150910A014617EC
:104E900057070CF047C0AC0146505109241735079D
:104EA0006CF440910D0150910E014F3F5F4F31F472
:104EB00041E050E050930E0140930D010696821799
:104EC000930764F480910D0190910E01019731F4E4
:104ED0008FEF9FEF90930E0180930D012091900230
:104EE0008091690290916A022C3129F40196909385
:104EF0006A02809369028091690290916A024E97DA
:104F00000CF473C88091920281116FC82C3109F0A2
:104F10006CC88091090190910A01181619060CF4C9
:104F20005BC863C864177507CCF6821793074CF407
:104F300080910D0190910E01019681F681E090E043
:104F4000C9CF2817390754F6BDCF80918B029091B5
:104F50008C02019690938C0280938B02209189029F
:104F600030918A02821793070CF4B8CF6111B6CF43
:104F700010928C0210928B020E94F33220E130E0FA
:104F800040E050E00E94613370938A02609389028E
:104F9000A5CFE417F5070CF072C8281739073CF4C1
:104FA0006F3F7F4F09F06BC881E090E064C88217C3
:104FB00093070CF064C86130710509F060C859C8E6
:104FC0002091890230918A02220F331FF901E55B9B
:104FD000FD4F60817181461757071CF0683F7F4F76
:104FE0007CF4A1110DC00E94F3322AE030E040E0D1
:104FF00050E00E94613370938A02609389023FC837
:1050000025593D4FF90120813181AC0141505109B1
:10501000241735077CF040910D0150910E014F3F50
:105020005F4F41F4A11106C041E050E050930E01E2
:1050300040930D010196821793070CF420C88091CC
:105040000D0190910E01019709F019C8AA2311F4DE
:105050000C94392014C8A9014E5F5F4F48175907B7
:105060001CF47F5F709390020296821793070CF0F6
:1050700008C96F5F60938F0204C9A901485F5F4F41
:10508000481759071CF47F5F709390020896EDCF84
:10509000A901425F5F4F481759071CF47F5F709367
:1050A00090020E96E2CF0E851F85041515050CF0B3
:1050B00074C9121613060CF070C9019621503109FB
:1050C000B39406E010E0198B088B67C97301EE0EEC
:1050D000FF1E0E811F81E016F10624F188248A94B8
:1050E000982C22242394312C64C913E0F12E1C81C6
:1050F000EA80112311F40C948032E1100BC01216D7
:10510000130644F4019621503109B39406E010E0EF
:10511000198B088BFA94F110EACF4BC97A01AB01D5
:10512000B70147C988248394912C22242A94322CD5
:1051300040C9E3E0880F991FEA95E1F7860F971FB2
:10514000EC81FD81918380832E5F3F4F2D933C93B3
:105150004AE050E0F801518340832430310514F4D3
:10516000D6011C92F601808181508083FCCA109286
:1051700030022DCB11E01A835CCB2DE930E241EBFC
:1051800050E270E060E081E090E00E94EE102DE9D6
:1051900030E247E850E278CB0B977CF42DE530E223
:1051A00041E750E270E060E081E090E00E94EE10A4
:1051B0002DE530E247E450E267CB2DE130E241E3F8
:1051C00050E270E060E081E090E00E94EE102DE19E
:1051D00030E247E050E258CB009731F58091300241
:1051E000823098F429ED3FE14FEE5FE170E060E03E
:1051F00090E080E00E94EE1029ED3FE141EC5FE19C
:1052000064E170E090E080E043CB23E93FE149EACC
:105210005FE170E060E090E080E00E94EE1023E942
:105220003FE14BE75FE1ECCF0B977CF42DE43FE1EE
:1052300043E65FE170E060E090E080E00E94EE1005
:105240002DE43FE145E35FE1DBCF27E03FE14DE1C6
:105250005FE170E060E090E080E00E94EE1027E007
:105260003FE14FEE5EE1CCCF11E01A8342CC111149
:105270000C94913281E0809329027BCC82E0809370
:10528000290210912902109328027ACC813009F06A
:1052900049C001E08B889C888CE1880E911C9401A8
:1052A0004EE750E06B897C89615F7F4F8EE790E02D
:1052B0000E948D15AB88BC8892E2A90EB11C9501A5
:1052C0004DE750E0B7018DE790E00E948D152B89E6
:1052D0003C89295E3F4F49E650E0B60189E690E0FF
:1052E0000E948D152B893C89265E3F4F4AE650E08F
:1052F0006B897C89685E7F4F8AE690E00E948D15FD
:1053000094014BE650E06B897C89655E7F4F8BE6AC
:1053100090E00E948D1595014BE650E0B7018CE6B8
:1053200090E092CC823009F049C001E02B893C89A1
:105330002C5E3F4F4EE750E06B897C89615F7F4F69
:105340008EE790E00E948D1593014FE750E06B8946
:105350007C896B5E7F4F8FE790E00E948D152B89D3
:105360003C892E5D3F4F4EE750E06B897C89605E43
:105370007F4F8EE790E00E948D152B893C892A5E35
:105380003F4F49E650E0B60189E690E00E948D1556
:105390002B893C89275E3F4F4AE650E06B897C8928
:1053A000695E7F4F8AE690E00E948D1593014DE67D
:1053B00050E06B897C89665E7F4F44CC833009F076
:1053C00045C001E0AB88BC88ACE1AA0EB11C9501D8
:1053D0004EE750E06B897C89615F7F4F8EE790E0FC
:1053E0000E948D152B893C892E5D3F4F4FE750E081
:1053F000B7018FE790E00E948D152B893C89295ECB
:105400003F4F49E650E0B60189E690E00E948D15D5
:105410002B893C89255E3F4F4AE650E06B897C89A9
:10542000685E7F4F8AE690E00E948D1597014BE6FB
:1054300050E0B5018BE690E00E948D1593014DE69A
:1054400050E06B897C89625E7F4F69CF843009F0C0
:10545000FDCB01E02B893C892A5E3F4F4EE750E0AF
:105460006B897C89615F7F4F8EE790E00E948D158C
:10547000AB88BC88BCE1AB0EB11C95014DE750E098
:105480006B897C89695E7F4F8DE790E00E948D1566
:105490002B893C89205E3F4F4EE750E0B7018EE7F5
:1054A00090E00E948D1541E06B897C896F5D7F4F94
:1054B0008FE790E00E9480142B893C89285E3F4F43
:1054C00049E650E0B60189E690E00E948D1595010D
:1054D0004AE650E06B897C89675E7F4F8AE690E000
:1054E0000E948D152B893C89225E3F4F4BE650E090
:1054F000B7018BE690E00E948D1541E0B3018CE688
:1055000090E00E948014A2CB11110BC029E83CE16D
:1055100045EB5CE16B897C896B5D7F4F82E690E0B7
:1055200004CC123059F427E23CE147E55CE16B8999
:105530007C896C5D7F4F80E690E0F7CB133009F0FB
:10554000F6CB25E93BE14DED5BE16B897C896F5D35
:105550007F4FF1CF892869F46B897C89615D7F4F2A
:1055600021E339E141E459E188E790E00E94EE103F
:105570004AC26B897C89645F7F4F2DE13AE143E445
:105580005AE180E690E00E94EE106B897C896E5DA6
:105590007F4F23E539E147EB59E143CC0115110574
:1055A00009F0CCC725E838E14AED58E16B897C89E0
:1055B0006B5F7F4F81E690E00E94EE102FE137E1B4
:1055C0004FE757E16B897C89675F7F4F88E690E002
:1055D0000E94EE10EA80FA88EF1011C080919402C8
:1055E0008770863061F425EF36E149E057E16B8939
:1055F0007C896A5E7F4F8DE690E00E94EE10F1019B
:10560000E170FF27EE0FFF1FED5BFD4FE080F180A3
:10561000AE85BF85CD90DC90C70103968C159D05A6
:105620004CF440E06B897C89645E7F4F81E790E0B9
:105630000E948014B6E0EB0EF11CEC14FD0464F43F
:105640002BEC36E14FED56E16B897C896A5E7F4F2A
:105650008DE690E00E94EE100115110561F02BEC33
:1056600036E145EB56E16B897C896A5E7F4F8DE6BA
:1056700090E00E94EE10EB88FC88E2E2EE0EF11C56
:105680002FE83DE140EE5DE1B70185E690E00E9444
:10569000EE1021E43DE147E65DE16B897C896C5CBD
:1056A0007F4F88E690E00E94EE10452809F06DC11A
:1056B000012B41F42BE236E14FE656E1B7018FE6CC
:1056C00090E054CF6B897C89665E7F4F23EC34E198
:1056D0004FE355E180E690E049CF9C012D593F4FC3
:1056E000273C310518F424E130E02DC22EE030E0F3
:1056F0002AC2883E3FEF93070CF4A8C2019790930B
:10570000100180930F01A2C22A813B81293F3F4FA4
:105710000CF0F9C201E028E04CE066E070E088E2BD
:1057200090E00E9451158A819B81813F9F4F0CF030
:10573000EAC228E04CE066E070E08CE490E00E9471
:105740005115EA81FB81E93EFF4F0CF0DCC201E01C
:1057500020E140E462E170E080E290E0D2C2029792
:1057600009F0E5C390918E0221E030E08901091B28
:10577000110920E6209F7001219FF00C1124FB826B
:10578000EA8200E020E440E270E060E0C7010E94AD
:10579000511521E830E141E851E170E060E08A8193
:1057A0009B810E94EE102BE630E145E750E16DE071
:1057B00070E0B9C31111ECC38BE190E090932D021E
:1057C00080932C02E0902A02F0902B02FB82EA8266
:1057D0002BED39E041EE5BE0B7010E94EE10B7011E
:1057E0006F5C7F4F29E636E041E258E081E290E0CD
:1057F000CDC34330F1F4A9014B5F5F4F4817590700
:105800001CF47F5F7093900205962FCC473009F40B
:1058100022CC433009F431CC413071F4A9014C5E03
:105820005F4F481759071CF47F5F709390024496AE
:105830001CCC413009F42CCC453011F00C944121A2
:10584000A901435E5F4F481759071CF47F5F7093AF
:1058500090024D960ACC019609F05EC8612F8A85A8
:105860000E943813D5018D909C908E0C9F1CF201E4
:10587000C080D1809601275D3F4F482FB401C901F8
:10588000AA85BB858A1B9B0B0E948014B8E3CB16AC
:10589000D1040CF441C8612F8A850E943813E7E1D6
:1058A000CE1AD108482FB401C6012A853B85821B38
:1058B000930B30C8019609F08CC82A813B81295F7F
:1058C0003E4F7901D9016D917C916C5F7F4FEA81E8
:1058D000FB81ED5FFE4F6F018081918123EA3EE104
:1058E00045EB5EE14C960E94EE10D6018D919C91A5
:1058F000883391050CF46DC8D7016D917C916C5F74
:105900007F4F23EA3EE145EB5EE1849760C8EAE021
:105910004E16510434F4112309F4B0CC11501093F5
:105920002902809129020BE0401651040CF4A9CC05
:10593000833008F09FCC8F5F9ECC8114910409F0D6
:10594000F4C529E73EE14DE85EE16B897C89645D41
:105950007F4F80E690E00E94EE10B7C9AA85BB8514
:105960000D911C914114510409F018CE0115110537
:1059700009F0E4C523E138E14BE458E16B897C8907
:10598000625E7F4F80E690E017CE012B09F09ACE41
:105990006B897C896B5D7F4F2DEB35E143EF55E1E2
:1059A00088E790E00E94EE10CB88DC88F7E2CF0E0B
:1059B000D11C2B893C892C5D3F4F01E04AE650E029
:1059C000B60187E690E00E948D152B893C89245D05
:1059D0003F4F46E650E0B60186E690E00E948D1506
:1059E0006B897C896D5D7F4F9B014CE650E089E6B9
:1059F00090E00E948D1597014AE650E0B70189E6D4
:105A000090E00E948D15EA80E1102AC006E010E0C7
:105A10001C8B0B8BFB8810E000E06F2D80E6800F65
:105A20000E94381390E090932F0280932E020197EA
:105A300049F441E06B897C898FE190E0801B910BF8
:105A40000E9480140F5F1F4F0032110531F70B8940
:105A50001C890F5F1F4F1C8B0B8B00341105D1F677
:105A60001FEF211A310A2E853F852E5F3F4F3F875A
:105A70002E874A855B854E5F5F4F5B874A871A8119
:105A8000113009F0F1CB01E025E04EE170E060E07B
:105A900081E090E00E94511525E04EE170E060E069
:105AA00081E690E00E94511580918F028C3118F0B0
:105AB0008CE180938F02809190028C3118F08CE100
:105AC00080939002E0908F02EA8200E023E04E2D66
:105AD00061E070E082E090E00E945115F090900249
